:040000008A15182A1B
:10000800FF00030E8301A9000A08AA008A017008EC
:10001800A1000C1C40280C100B308F00DC308E0027
:10002800A70A80302706F00080300A3A7002031CC5
:100038001F28A701A80A80302806F00080303C3A23
:100048007002031C2928A801A20A80302206F000A9
:1000580080303C3A7002031C3328A201A30A803086
:100068002306F0008030183A7002031C4028A701CC
:10007800A801A201A301A40A2108F0002A088A0005
:0A008800290E8300FF0E7F0E090011
:100092007B15FB1F53280130F300F201F101F0013F
:0800A200FA0DF20CFF3008001A
:0E00AA00F201F101F001F801F301003008004D
:0800B800FA1FF21300300800EA
:1000C000FB14FB1F6A28FF30F300F200F100F00080
:0800D000FA0DF20CFF300800EC
:1000D8007C18A228FC1873287C19C1286C28A00158
:1000E8007208031D93287108F2007008F10078085F
:1000F800F000F801A0157208031D93287108F2009A
:100108007008F100F001A01120167208031D932851
:100118007108F200F101A01572080319B52820082A
:10012800F302031D031CB9280310F21BA228F80DC3
:10013800F00DF10DF20DF30B9928B9287B1B701CFB
:10014800BD28F81FBD28F00A0319F10A0319F20A9D
:10015800031DBD28F20CF10CF00CF30A0319C12899
:10016800BD280130FC005520C4280230FC0049207D
:10017800C4280430FC005C20C4280830FC0060203F
:04018800000008006B
:10018C00A0017208031DDB287108F2007008F10051
:10019C00F001A0157208031DDB287108F200F101B3
:1001AC00A011201672080319E9282008F302031D78
:1001BC00031CED280310F21BF128F00DF10DF20DCC
:1001CC00F30BE128ED280130FC005520F428023017
:0E01DC00FC004920F4280430FC005C200800E0
:1001EA008312031372087606A000F801F901730856
:1001FA007702031C18297708FD007308F7007D08A9
:10020A00F3007608FD007208F6007D08F200750812
:10021A00FD007108F5007D08F1007408FD00700802
:10022A00F4007D08F0007708031991297208FA0092
:10023A00F217F61777087302F70003194B290830EB
:10024A007702031C4129F7007408F9007508F400C5
:10025A007608F500F60108307702031C4129F700F9
:10026A007408F9007508F400F50108307702031CD8
:10027A0041297A08F2009129770803194B290310BA
:10028A00F60CF50CF40CF90CF70B4429A01F5829AD
:10029A00F909F409F509F609F90A0319F40A03191F
:1002AA00F50A0319F60A7908F80774080318740F8F
:1002BA00F00775080318750FF10776080318760F0B
:1002CA00F207A01B7129031C8129F20CF10CF00C16
:1002DA00F80CF30F81298D2903188529F809F009EB
:1002EA00F109F209F80A0319F00A0319F10A0319C4
:1002FA00F20A8030FA0689290130FC006C20932921
:10030A000230FC006C2093290430FC00C62093299B
:10031A000830FC00602093290030FC00000008002F
:10032A007B14FB1FA029F201FA1FFF30F200F10033
:0A033A00F000FA0DF20CFF3008008D
:10034400831203137008F8007108F0007208F100BA
:100354007308F200F301FB01FC019E30F300FA0183
:10036400F21FC029F809F009F109F209F80A031982
:10037400F00A0319F10A0319F20AFA170230FC0011
:040384006C200800E1
:0C038800831203138030F606F5200800F5
:1003940083120313FB01FC01F80173080319422AB9
:1003A4007208FA00F2179E30F302F31F322AF3099F
:1003B400F30A08307302031C072AF300F80D7008CF
:1003C400F8007108F0007208F100F20108307302BD
:1003D400031C072AF300F80D7008F8007108F000F8
:1003E400F10108307302031C072AF300F80D7008AA
:1003F400F800F00108307302031C072AF300F80D1B
:10040400F8017308031D0310112A73080319112A34
:100414000310F20CF10CF00CF80CF30B0A2A7B1B02
:10042400781C1F2A031C1F2AF80A0319F00A03194F
:10043400F10A0319F20AF21B3F2AFA1F422AF209AF
:10044400F109F009F809F80A0319F00A0319F10A85
:100454000319F20A422AF201F101F001F801422AD9
:100464007B14FB1F452AF201FA1F452AF200F10012
:10047400F000F800FA0DF20C452A0130FC00472A7E
:100484000030FC00472AFF30FC00FC0803194B2A0B
:1004940095217208F3007108F2007008F1007808E1
:0404A400F00008005C
:1004A80083120313FA017308031D7A147708031DD6
:1004B800FA147A080319A02A033A03196B2A7A183E
:1004C800682AF61F9E2A9C2AF21F9C2A9E2A7208D6
:1004D8008039FA00F21376088039F6137A06031980
:1004E800792A7A0803199C2A9E2A77087302031925
:1004F800802A031C942A982A760872020319872AEC
:10050800031C942A982A7508710203198E2A031C61
:10051800942A982A740870020319A02A0318982AA2
:10052800FA0803199E2A9C2AFA0803199C2A9E2A6B
:10053800031408000310080003140315080008003A
:10054800023083120313FC004930FD00FD0BAA2A78
:0A055800FC0BAA2A000000000800B6
:0E056200213083120313FD00FD0BB52A0800A3
:1005700083120313FB0173080319F52A7208FA00AA
:10058000F2178E30F302F31FF82AF309F30A08304A
:100590007302031CDB2AF300F10D7208F100F20173
:1005A00008307302031CDB2AF300F10DF10173081C
:1005B000031D0310E32A73080319E32A0310F20C46
:1005C000F10CF30BDE2A7B1B711CED2A031CED2AB8
:1005D000F10A0319F20AF21B042BFA1F072BF20986
:1005E000F109F10A0319F20A072BF201F101072BB5
:1005F0007B14FB1F0A2BF201FA1F0A2BFF30F200BB
:10060000F100FA0DF20C0A2B0130FC000C2B00302B
:10061000FC000C2BFF30FC00FC080319102B95216B
:0A0620007108F0007208F1000800F4
:10062A00333083120313FD00FD0B192B0000000069
:02063A000800B6
:10063C00831203134A08F000F101F201F301FF30B9
:10064C00F0050030F1057008CF007108D0007F3044
:10065C007002F2000030031C013E7102F3007208BC
:10066C00CF007308D00080307306F0008030700229
:10067C00031D422B003072020318662BF401F501A6
:10068C00F601F7014708F0004808F1004908F200AC
:10069C004A08F3005422013003180030F0007008AF
:1006AC000319612B0030F0000030F1008030F200B3
:1006BC007F30F300BB2BF001F101F201F301BB2BF6
:1006CC005008003C031D6C2B4F08183C0318772B6B
:1006DC004708F0004808F1004908F2004A08F30006
:1006EC00BB2B4708F0004808F1004908F2004A0803
:1006FC00F300CA21A2217008CB007108CC0072084B
:10070C00CD007308CE007008F4007108F500720873
:10071C00F6007308F7004708F0004808F100490894
:10072C00F2004A08F3005422013003180030F000A4
:10073C0070080319B32B0030F4000030F5000030C2
:10074C00F6007F30F7004B08F0004C08F1004D0824
:10075C00F2004E08F300C421BB2B4B08F0004C08F0
:0C076C00F1004D08F2004E08F3000800F8
:1007780083120313FD01F80170080319003474068D
:10078800FA00FA1BFD09FB01F41FCC2BF409F40A4B
:10079800F01FD02BF009F00A70087404FA00FA1B55
:1007A800F42B7408F802F00D700DF80D7408F807B2
:1007B800F00D0630FC00700DF80D74087018F80282
:1007C800701CF807F00DFC0BDF2B701CF8077B186A
:1007D800022CFD1F0034F009F00AF809F80A003469
:1007E800F41FFF2BF01BFC2B7008F800F001ED2B19
:1007F800F001F00A0034F009FB0AD52BF80A740856
:100808007802031DED2BF801F00AF01FED2BFF34E1
:020818000800D6
:06081A00000000000800D0
:0E0820008312031326088A00250882000800B0
:10082E00262C83120313871207130716342C071274
:10083E0007138716342C071287120717342C8312CE
:10084E0003134708013A0319182C4708023A0319F3
:10085E001E2C4708033A0319222C532CC030860055
:10086E007B2CF93086007B2CA43086007B2CB0309C
:10087E0086007B2C993086007B2C923086007B2C58
:10088E00823086007B2CF83086007B2C80308600F0
:10089E007B2C903086007B2C4808003A0319352CAF
:1008AE004808013A0319382C4808023A03193B2C20
:1008BE004808033A03193E2C4808043A0319412C00
:1008CE004808053A0319442C4808063A0319472CE0
:1008DE004808073A03194A2C4808083A03194D2CC0
:1008EE004808093A0319502C4908013A0130031DF2
:1008FE000030F1004808023A0130031D0030F000CC
:10090E007108F0050319D12CA92C40308600D12C8A
:10091E0079308600D12C24308600D12C30308600E0
:10092E00D12C19308600D12C12308600D12C0230F9
:10093E008600D12C78308600D12C8601D12C103037
:10094E008600D12C4808003A03198C2C4808013A2D
:10095E0003198F2C4808023A0319922C4808033ABF
:10096E000319952C4808043A0319982C4808053A9F
:10097E0003199B2C4808063A03199E2C4808073A7F
:10098E000319A12C4808083A0319A42C4808093A5F
:10099E000319A62C0830FC00C930FD00FD0BD52C28
:0A09AE00FC0BD52C0000000008002F
:1009B80083120313FB01FC01FA01730803191B2DB1
:1009C800F2178E30F302F31BEC2C0319EC2C1E2DBE
:1009D800F309F30A08307302031C012DF300F10D2B
:1009E8007208F100F20108307302031C012DF10DA9
:1009F800F1017308031D0310092D73080319092D4C
:100A08000310F20CF10CF30B042D7B1B711C132D3E
:100A1800031C132DF10A0319F20AF21B2A2DFA1FDF
:100A28002D2DF209F109F10A0319F20A2D2DF2010F
:100A3800F1012D2D7B14FB1F302DF201FA1F302DF3
:100A4800FF30F200F100FA0DF20C302D0130FC00FD
:100A5800322D0030FC00322DFF30FC00FC08031959
:0E0A6800362D95217108F0007208F10008008B
:100A760083120313F801F9011030FC00710DF80D13
:100A8600F90D7408F8027508031C750FF9020318AE
:100A9600532D7408F80775080318750FF907031026
:0A0AA600F00DF10DFC0B412D0800CE
:100AB000831203137008F8007108F000F101F201CD
:100AC000F301FB01FC019630F300FA01F01F6E2DDB
:100AD000F809F009F80A0319F00AFA177008F1008A
:0C0AE0007808F000F801F201C6200800C0
:100AEC0083120313CC014808F1000130F0007108A7
:100AFC000319842DF00D7010FF3E7E2D7008CB0075
:100B0C004708840070080005F10071080130031DCE
:100B1C000030F0004A08F0060319AC2D4908003CDF
:100B2C0003189C2DA422A422C903942D47088400E9
:100B3C004B080005F10071080130031D0030F00076
:100B4C004A08F0060319AC2DFF30CC004C08F0001D
:020B5C0008008F
:100B5E0083120313FB017308031D77080319062E76
:100B6E0072087606FA007708F3077E30031CC32D51
:100B7E00F3020318092EC62DF302031C0C2E720865
:100B8E00F8007108FC007008FD00F817F617031046
:100B9E00F201F101F0011830A0007D1CE02D740867
:100BAE00F00775080318750FF10776080318760F0E
:100BBE00F207F20CF10CF00CF80CFC0CFD0C03100F
:100BCE00A00BD42DF21BF02DF80DF00DF10DF20D42
:100BDE00F3037B1B701C022EF81F022EF00A031962
:100BEE00F10A0319F20A031D022EF20CF10CF00C9D
:100BFE00F30A0319092EFA1FF21300300E2E0130DC
:100C0E0055200E2E023060200E2E0430492000009A
:020C1E000800CC
:100C200010248A110A128000840AA50A0319A60A50
:080C3000F003031D102E080063
:100C3800831203133608F1000130F000710803191C
:100C4800292EF00D7010FF3E232E7008B800F00911
:100C58003508840070088005841770088005A42270
:100C6800380880048413152338080005B7003708AE
:100C7800003A013003190030B700A4223708F00009
:020C8800080062
:100C8A00831203133608F1000130F00071080319CA
:100C9A00522EF00D7010FF3E4C2E7008BA007009EB
:100CAA00B90035088400B801B7013708073C031CAE
:100CBA007E2E390880058417390880050D243A08E4
:100CCA0080040D2484133A080005F00003197A2ED3
:100CDA003708F1000130F00071080319782EF00D81
:100CEA007010FF3E722E7008B804B122B122B70A02
:080CFA005A2E3808F000080032
:100D0200831203137008F100F0010830FC0071082F
:100D1200F40C0318902EFC0B892EF1010034031001
:100D2200952EF40C0318F107F10CF00CFC0B922E2B
:020D32000800B7
:100D340031308312031390000C100B308F00DC3021
:0C0D44008E0083160C14C0308B000800D9
:100D500083120313871207130716C8308600083062
:100D6000FC00C930FD00FD0BB32EFC0BB32E0000C0
:100D70000000071207138716C03086000830FC00F9
:100D8000C930FD00FD0BC22EFC0BC22E000000007E
:100D9000071287120717803086000830FC00C93020
:100DA000FD00FD0BD12EFC0BD12E00000000053004
:100DB000C7000130C8000130C9000130CA007625E3
:100DC000700803194B2F0A30F4003508F000BC23DB
:100DD0000030F01BFF30F10058257008C700710883
:100DE000C8007208C9007308CA001E23B822700820
:100DF000B6000A30F4003508F000BC237808F00093
:100E00007008B7000130C7003608C800C9011724B0
:100E10000230C7003708C800C90117240530C700D1
:100E20000230C8000130C9000130CA0076257008C0
:100E300003191B2FB50A0530C7000330C800013065
:100E4000C9000130CA00762570080319282FB503A0
:100E500080303506F0008030283A7002031C312FB4
:100E6000B5018030FF3AF000803035067002031C77
:100E70003B2F2730B5000530C7000130C8000130D6
:100E8000C9000130CA007625700803194A2F3508B9
:0A0E9000F0004C2FE32ED72E0800CF
:1010000083120313871207130716F830860008307F
:10101000FC00C930FD00FD0B0B28FC0B0B28000069
:101020000000071207138716CE3086000830FC0038
:10103000C930FD00FD0B1A28FC0B1A280000000027
:101040000530C7000130C8000130C9000130CA00B6
:101050008A1176258A15700803195A293508B900AE
:101060003608BA003708BB003808BC003508C7008E
:101070003608C8003708C9003808CA008A111E237C
:101080008A157008BD007108BE007208BF007308A1
:10109000C0008A11DC248A157008C1007108C200E2
:1010A0000A30F4000030F5008A113B258A157008DB
:1010B000C3007108C4000A30F4000030F500410894
:1010C000F0004208F1008A113B258A157808F000EB
:1010D0007908F1007008C5007108C6003D08F400E9
:1010E0003E08F5003F08F6004008F7003908F00018
:1010F0003A08F1003B08F2003C08F3008A11C421D1
:101100008A150030F4000030F5002030F6008230FF
:10111000F7008A11AF258A158A11DC248A15700818
:10112000C1007108C2000130C7004308C800C901EE
:101130008A1117248A150230C7004508C8000130FB
:10114000C9008A1117248A150330C7004108C80056
:10115000C9018A1117248A150530C7000230C8005A
:101160000130C9000130CA008A1176258A1570083D
:101170000319D5283508F0003608F1003708F200C9
:101180003808F300CD30F400CC30F5004C30F600D8
:101190007B30F7008A11F5208A157008B5007108B8
:1011A000B6007208B7007308B8000530C7000330F6
:1011B000C8000130C9000130CA008A1176258A159D
:1011C00070080319FE28CD30F400CC30F5004C3007
:1011D000F6007B30F7003508F0003608F1003708DC
:1011E000F2003808F3008A11C4218A157008B5008E
:1011F0007108B6007208B7007308B8000030F40038
:101200000030F5004830F6008430F7003508F00073
:101210003608F1003708F2003808F3008A1154222A
:101220008A150130031C0030F000700803192029D2
:101230000030B5000030B6002030B7008330B80071
:101240003508F4003608F5003708F6003808F700CE
:101250000030F0000030F1001830F2008330F3006D
:101260008A1154228A150130031C0030F0007008E6
:10127000031942290030B5000030B6004430B700F1
:101280008430B8000530C7000130C8000130C90003
:101290000130CA008A1176258A1570080319592968
:1012A0003508F0003608F1003708F2003808F3007E
:0812B0005B292E28202808000C
:1012B800831203138712071307168030860008303D
:1012C800FC00C930FD00FD0B6729FC0B67290000F5
:1012D8000000071207138716C83086000830FC0084
:1012E800C930FD00FD0B7629FC0B762900000000B3
:1012F800071287120717883086000830FC00C930AB
:10130800FD00FD0B8529FC0B852900000000053038
:10131800C7000130C8000130C9000130CA008A1175
:1013280076258A1570080319162A0A30F40035083C
:10133800F0008A11BC238A150030F01BFF30F10041
:101348008A1158258A157008C7007108C8007208E4
:10135800C9007308CA008A111E238A158A11B82287
:101368008A157008B6000A30F4003508F0008A11B2
:10137800BC238A157808F0007008B7000130C70050
:101388003608C800C9018A1117248A150230C70017
:101398003708C800C9018A1117248A150530C70003
:1013A8000230C8000130C9000130CA008A11762510
:1013B8008A1570080319E129B50A0530C7000330FA
:1013C800C8000130C9000130CA008A1176258A1583
:1013D80070080319F029B50380303506F000803015
:1013E800633A7002031CFA291E30B50080301D3A9A
:1013F800F000803035067002031C042A6230B50004
:101408000530C7000130C8000130C9000130CA00EA
:101418008A1176258A1570080319152A3508F000EF
:08142800172A99298B290800FD
:10143000013083120313B400FF3083168500860148
:1014400087018A119A268A158312A401A301A20199
:10145000A801A7010530C7000130C8000130C9004C
:101460000130CA008A1176258A153408013A013004
:10147000031D0030F1007108F0050319522A3008ED
:10148000B5003108B6003208B7003308B8000020B4
:101490007008B0007108B1007208B2007308B300A0
:1014A0000230B4000530C7000130C8000130C90067
:1014B0000130CA008A1176258A153408023A0130B3
:1014C000031D0030F1007108F00503196E2A2B0886
:1014D000B5005C217008AB000330B4000530C700D4
:1014E0000130C8000130C9000130CA008A117625D8
:1014F0008A153408033A0130031D0030F1007108E9
:10150000F00503198C2A2C08B5008A11A8268A1523
:101510007008AC000130B4000530B500B6018A1186
:101520001C268A150530B500B6018A1145268A1594
:101530007008AD000530B500B6018A1145268A1540
:101540000530B500B6018A1145268A157008AE002F
:101550000530B500B6018A1145268A157008AF001E
:1015600080302806F1008030003A71020130031CFF
:101570000030F10080302806F0008030143A70020C
:10158000013003180030F0007108F0050319562BE4
:101590000A30F4002E08F0008A11BC238A150030AE
:1015A000F01BFF30F1008A1158258A157008C7001A
:1015B0007108C8007208C9007308CA008A111E2386
:1015C0008A158A11B8228A157008C8000130C70030
:1015D000C9018A1117248A150230C7000A30F400A5
:1015E0002E08F0008A11BC238A157808F0007008D4
:1015F000C8000130C9008A1117248A1580302F06CF
:10160000F10080300A3A71020130031C0030F10011
:1016100080302F06F0008030643A700201300318E9
:101620000030F0007108F00503191F2B2F08F0009F
:101630000A30F4008A1181268A157008AF008030C4
:101640002F06F00080300A3A70020318302B2F0862
:10165000F0006430F4008A1181268A157008AF000A
:101660006430F4002F08F0008A11BC238A15003082
:10167000F01BFF30F1008A1158258A157008C70049
:101680007108C8007208C9007308CA008A111E23B5
:101690008A158A11B8228A157008AF000330C70076
:1016A0007008C800C9018A1117248A1580302806DD
:1016B000F1008030143A71020130031C0030F10057
:1016C00080302806F0008030283A7002013003187C
:1016D0000030F0007108F0050319A32B0A30F40064
:1016E0002D08F0008A11BC238A150030F01BFF3052
:1016F000F1008A1158258A157008C7007108C800C2
:101700007208C9007308CA008A111E238A158A113B
:10171000B8228A157008C8000130C700C9018A11B3
:1017200017248A150230C7000A30F4002D08F00093
:101730008A11BC238A157808F0007008C800C90116
:101740008A1117248A1580302806F0008030283A44
:101750007002031CE02B0A30F4002408F0008A1108
:10176000BC238A150030F01BFF30F1008A11582588
:101770008A157008C7007108C8007208C90073088C
:10178000CA008A111E238A158A11B8228A15700888
:10179000C8000130C700C9018A1117248A15023018
:1017A000C7000A30F4002408F0008A11BC238A150F
:1017B0007808F0007008C800C9018A1117248A153A
:0417C0002A2AE12BC5
:02400E004A2F37
:00000001FF
